:040000008031FE2825
:100008007E01CA1A08281028CA124B011F1D853004
:100018001F1970309F000728090082071A28212815
:1000280028282F2836283D2844284B28400119081D
:100038000912191E09169900080040011A08091228
:100048001A1E09169A00080040011A0889119A1DFB
:1000580089159A000800400119088910991C89140B
:100068009900080040011A0889129A1E89169A00F8
:100078000800400119080911191D091599000800FF
:1000880040011C0889109C1C89149C000800400130
:1000980018080910181C09149800080082075B2822
:1000A80062286928702877287E2885288C284001AE
:1000B80019080910191C09149900080040011C08A6
:1000C80009101C1C09149C00080040011A08891317
:1000D8009A1F89179A000800400119088911991D6B
:1000E80089159900080040011A0809101A1C0914FA
:1000F8009A00080040011A0809131A1F09179A00E4
:10010800080040011A0889109A1C89149A000800EE
:1001180040011A0809111A1D09159A0008009301CF
:10012800940196019201980199019A019C01080095
:1001380040010030A000A100400193209001161159
:100148008D01930193167E01C301C4167E01C81662
:10015800C916CA128B174E0116164B019E1770301E
:100168009F00F32007305220073011204E018C1ECB
:10017800BB284E018C1240012108083C0319D220EB
:1001880021088903891B0730522021085220A10A1F
:1001980040011C1DE4281C19E028BA28A1012008E8
:1001A8008903891B0730112020081120A00A200884
:1001B800083C0319A001080040011C114E01BA288F
:1001C80040011C154E01BA284001210811204001A8
:1001D800A10A2108083C031DE828A10108004001E4
:1001E800210852204001A10A2108083C031DF328D8
:1001F800A10108008B014E019601970198018031F9
:020208009C2830
:020000040001F9
:0A000E00CD3F2537FF3FFF3FFF3FC6
:00000001FF
