:100F66008731CB2FF000030EF1000A08F2007E0154
:100F7600C42FCA124B011F1983301F1D87309F00D3
:100F8600E92F72088A00710E8300F00E700E0900B8
:100F9600C1308B004E0110307E012030C800C800E1
:100FA600C9008731D62F4B019E1783309F00400121
:100FB60096018D01FF3093007E01C301C4164E01D8
:100FC6008C1EE32F8C127E01CA1AEF2F40011C1DC6
:100FD600FB2F1C19F72FE22FCA124B011F19833062
:100FE6001F1D87309F00E92F40011C114E01E22F83
:0A0FF60040011C150E308800E22FA8
:020000040001F9
:0A000E00CD3F2537FF3FFF3FFF3FC6
:00000001FF
