:0400000080317928AA
:100008007E01CA1A1A284E010D180B2822280D1035
:1000180041011C0846019500953541011B08460120
:10002800950795359507953594000A28CA124B010E
:100038001F1983301F1D87309F00072809004001C2
:1000480093019001161194018D019A0193167E0176
:10005800C301C4167E01C816C916CA128B174E01F1
:1000680016164B019E1783309F0045011314460155
:1000780096014501FF308D0046010830950000309B
:1000880094004E010D1345018F161014F0308E00A8
:10009800460196174E010D1F4F280D1313107E01B0
:1000A8000330980014154E15410112309D001D149F
:1000B80070309E008B170B174E0117144E018C1EC3
:1000C80063284E018C1241019D1440011C1D7528A6
:1000D8001C19712862284601950140011C114E0126
:1000E800622840011C154E0162288B014E019601C1
:0800F8009701980180312328D3
:020000040001F9
:0A000E00CD3F2537FF3FFF3FFF3FC6
:00000001FF
