:040000008031E12842
:100008007E01062809004001A001A101A201A30167
:10001800A401A601A70140018F0195019001960155
:100028001C149C148C0192019815181698168E01B0
:1000380094011A149A148D0193167E01C301C416F3
:10004800B801C301CE01D9014B019E1774309F003E
:10005800440100308E000730910040011A101A1434
:1000680040010630A2000030A40074205220400154
:100078000130A600522040010230A60052204E0155
:100088008C1E44284E018C124001852043284001D3
:100098001C10A82040011C14A82008004001203092
:1000A80026079800A7012608B8209B00A820400131
:1000B8009C10A8204B204001283098004001A70A36
:1000C8002608B82040019B00A8204B204001980A30
:1000D80007302702031D6228A7019C14A8200800E6
:1000E800400130309800A82040019C10A820400111
:1000F80024089B00A8204B2040019B019C14A820A9
:10010800080040012108B020A300962040012108E2
:10011800220203199228A10AA00A86284001A001F8
:10012800A10108004001783020079800A82040016C
:100138009C10A820400123089B00A8204B204001C8
:100148009B019C14A820080044010E140C1EAA2828
:100158000E108D018C0108000B008034813482342C
:10016800833469346E34673489350B00C020080045
:10017800CB200800D6200800400127080B000034D7
:10018800013402340334043405340634073440019E
:1001980027080B0001341F34113411341134113481
:1001A80011341F34400127080B000234173415346A
:1001B8001D3401341F3410341F348B014E01960155
:0801C80097019801803107281E
:020000040001F9
:0A000E00CD3F2537FF3FFF3FFF3FC6
:00000001FF
