:0400000081314F29D2
:100008007E01062809004001A001A101A201A30167
:10001800A401A601A701A801A901B001B1014001ED
:100028008F019501900196011C149C148C0192017A
:100038009815181698168E0194011A149A148D01A1
:1000480093167E01C301C416B801C301CE01D901BC
:100058004B0180309E0084309F00440100308E00A8
:100068000730910040011A101A148030A90040018D
:100078000730A2000430A8000830A4008520C6205C
:100088004E018C1E45284E018C1240019620B10A63
:10009800442840011C10BE2040011C14BE2008004A
:1000A8004001980198122908891398079B01A91BF8
:1000B8001B149C10BE204D209C14BE20080040013B
:1000C800203026079800A701260843219B00BE2060
:1000D80040019C10BE204D2040012830980040016E
:1000E800A70A2608432140019B00BE204D2040015D
:1000F800980A07302702031D7328A7019C14BE2005
:100108000800400130309800BE2040019C10BE20FD
:10011800400124089B00BE204D2040019B019C14F7
:10012800BE200800400100308500313084002108DD
:10013800D0204001A300AC2040012108220203196D
:10014800A828A10AA00A97284001A001A101080037
:100158004001783020079800BE2040019C10BE2046
:10016800400123089B00BE204D2040019B019C14A8
:10017800BE20080044010E140C1EC0280E108D016C
:100188008C0108004001A6016320400126082802CE
:1001980003190800A60AC8284001B00089353007AD
:1001A80040010B00001C30343134801C30343134B1
:1001B800001D30343134801D30343134001E303469
:1001C8003134801E30343134001F30343134801FD4
:1001D800303431344001B0008935300740010B001C
:1001E800311C30343134B11C30343134311D3034A9
:1001F8003134B11D30343134311E30343134B11E14
:1002080030343134311F30343134B11F303431346B
:10021800400127080B000034173415341D3401340D
:100228001F3410341F34400127080B0001340034F8
:100238000E341334133413340E340A3440012708AF
:100248000B0002340E340E340E34153404340A34E0
:100258001134400127080B0003341F341F341F34A6
:100268001F341F341F341F34400127080B00043487
:10027800003404340C340434063402340034893530
:100288000B000C21080017210800222108002D214D
:100298000800382108008B014E019601970198014A
:0402A8008031072872
:020000040001F9
:0A000E00CD3F2537FF3FFF3FFF3FC6
:00000001FF
