:0400000080317A28A9
:100008007E01CA1A0B284E010D1813282128CA127E
:100018004B011F1983301F1D87309F0007284E0191
:100028000D1041019D18162841011B084601940036
:1000380041011C08460195000A2809004001930166
:10004800900116118D0193167E01C301C4167E011D
:10005800C816C916CA128B174E0116164B019E17E1
:1000680083309F0040011314460196014501FF307B
:100078008D00460100309500003094004E010D13AC
:1000880045018F161014F0308E00460196174E0168
:100098000D1F4C280D13400113107E0103309800EA
:1000A800400114157E014E15410149309D009F0104
:1000B80070309E004E0117148B170B174E018C1EC3
:1000C80063284E018C1241019D1440011C1D7528A6
:1000D8001C19712862284601950140011C114E0126
:1000E800622840011C150E30880062288B014E01E1
:0A00F800960197019801803122283B
:020000040001F9
:0A000E00CD3F2537FF3FFF3FFF3FC6
:00000001FF
