:100F7E008B014E019601970198018731D52F7E0185
:100F8E00CA1ACA2FD22FCA124B011F1983301F1D26
:100F9E0087309F00C92F09008731BF2F4B019E1745
:100FAE0083309F00400196018D019316FF30930010
:100FBE0094019A017E01C301C4164E0116167E01DC
:100FCE00C816CA168B174E018C1EEB2F4E018C12B3
:100FDE0040019A0A40011C1DFB2F1C19F72FEA2F06
:100FEE0040011C114E01EA2F40011C150E308800E5
:020FFE00EA2FD8
:020000040001F9
:0A000E00CD3F2537FF3FFF3FFF3FC6
:00000001FF
