:0400000080313B28E8
:100008007E01CA1A08281028CA124B011F1983300A
:100018001F1D87309F0007280900400196019401A1
:100028008D01990193167E01C301C4167E01C8167D
:10003800C916CA128B174E0116164B019E1783302C
:100048009F004E018C1E26284E018C1240019A0AF0
:1000580040011C1D36281C193228252840011C1176
:100068004E01252840011C150E30880025288B01DB
:0C0078004E01960197019801803111287B
:020000040001F9
:0A000E00CD3F2537FF3FFF3FFF3FC6
:00000001FF
