:0400000080317B28A8
:100008007E01CA1A0B284E010D1813282228CA127D
:100018004B011F1983301F1D87309F0007284E0191
:100028000D100A2841011B084601940041011C08D3
:100038004601950041019B019C010A2809004001E5
:100048009301900116118D0193167E01C301C41608
:100058007E01C816C916CA128B174E0116164B0117
:100068009E1783309F0045011314460196014501F0
:10007800FF308D00460100309500003094004E019D
:100088000D1345018F161014F0308E004601961797
:100098004E010D1F4D280D1313107E0103309800DB
:1000A800400114154E15410148309D009D019F01E6
:1000B8001D144E0117148B170B1741019D144E0187
:1000C8008C1E64284E018C1241019D1440011C1D98
:1000D80076281C19722863284601950140011C11D5
:1000E8004E01632840011C150E30880063288B01DF
:0C00F8004E0196019701980180312328E9
:020000040001F9
:0A000E00CD3F2537FF3FFF3FFF3FC6
:00000001FF
