:0400000080316028C3
:100008007E01CA1A08281028CA124B011F1983300A
:100018001F1D87309F0007280900400193019001A8
:10002800161194018D019A0193167E01C301C4161D
:100038007E01C816C916CA128B174E0116164B0137
:100048009E1783309F004501131446019601450110
:10005800FF308D00460108309500003094004E01B5
:100068000D1345018F161014F0308E0046019617B7
:100078004E010D1F3D280D1313107E01033098000B
:100088004E018C1E45284E018C124601950A150812
:10009800603C0319552840011C1D5B281C19572872
:1000A80044284601950140011C114E014428400195
:1000B8001C150E30880044288B014E0196019701CB
:0600C800980180311128AF
:020000040001F9
:0A000E00CD3F2537FF3FFF3FFF3FC6
:00000001FF
