:0400000080315528CE
:100008007E01CA1A08281028CA124B011F1983300A
:100018001F1D87309F0007280900400194019A019D
:100028000800400170307B078401850184000808BE
:100038000818841789368500000840019A00400195
:10004800FB0A080040010030FB0040019001161136
:100058008D01930193167E01C301C41611207E0100
:10006800C816C916CA128B174E0116164B019E17D1
:1000780083309F000C304E018C1E40284E018C129C
:1000880070087B30152040011C1D51281C194D2873
:100098003E2840011C114E013E2840011C154E010E
:1000A8003E288B014E019601970198018031262840
:020000040001F9
:0A000E00CD3F2537FF3FFF3FFF3FC6
:00000001FF
