:100F5E008731C72FF000030EF1000A08F2007E0160
:100F6E00C02FCA124B011F1983301F1D87309F00DF
:100F7E00E92F72088A00710E8300F00E700E0900C0
:100F8E00C1308B004E0110307E012030C800C800E9
:100F9E00C9008731D22F4B019E1783309F0040012D
:100FAE0096018D01FF30930094019A017E01C301D9
:100FBE00C4164E018C1EE12F8C1240019A0A7E013E
:100FCE00CA1AEF2F40011C1DFB2F1C19F72FE02F03
:100FDE00CA124B011F1983301F1D87309F00E92F46
:100FEE0040011C114E01E02F40011C150E308800EF
:020FFE00E02FE2
:020000040001F9
:0A000E00CD3F2537FF3FFF3FFF3FC6
:00000001FF
