:10000000F000030EF1000A08F2007E01CA1A092866
:1000100010284B011F1983301F1D87309F000828AF
:1000200072088A00710E8300F00E700E0900C13054
:100030008B004E01103096007E012030C800C800B1
:06004000C9008731E02F2A
:100FBC00803117284B019E1783309F00400196010A
:100FCC008D01FF3093007E01C301C4164E018C1EAF
:100FDC00ED2F8C12400140011C1DFB2F1C19F72F0B
:100FEC00EC2F40011C114E01EC2F40011C150E3052
:040FFC008800EC2F4E
:020000040001F9
:0A000E00CD3F2537FF3FFF3FFF3FC6
:00000001FF
