:0400000080317428AF
:100008007E01CA1A15284E010D180B281D280D103F
:1000180041011C084601950041011B084601940056
:100028000A28CA124B011F1983301F1D87309F00F1
:1000380007280900400193019001161194018D01D0
:100048009A0193167E01C301C4167E01C816C9160B
:10005800CA128B174E0116164B019E1783309F004C
:1000680045011314460196014501FF308D004601F4
:1000780008309500003094004E010D1345018F168D
:100088001014F0308E00460196174E010D1F4A28B5
:100098000D1313107E010330980014154E154101FD
:1000A80012309D001D14F0309E008B170B174E0167
:1000B80017144E018C1E5E284E018C1241019D14AE
:1000C80040011C1D70281C196C285D2846019501EB
:1000D80040011C114E015D2840011C154E015D2890
:0E00E8008B014E0196019701980180311E2870
:020000040001F9
:0A000E00CD3F2537FF3FFF3FFF3FC6
:00000001FF
