:027F7600CD2F0D
:107F7E00C02F7E01CA1AC42FCC2FCA124B011F1953
:107F8E0083301F1D87309F00C32F0900BF31CF2FB5
:107F9E008B014E01960197019801BF31D62F4B01EF
:107FAE009E1783309F004001960193018D01990128
:107FBE0093167E01C301C4164E0116167E01C81615
:107FCE00C916CA120B174E018C1EEB2F4E018C12C6
:107FDE0040019A0A40011C1DFB2F1C19F72FEA2F96
:107FEE0040011C114E01EA2F40011C150E30880075
:027FFE00EA2F68
:020000040001F9
:0A000E00CD3F2537FF3FFF3FFF3FC6
:00000001FF
