:100F48008731B22FF000030EF1000A08F200720890
:100F58008A00710E8300F00E700E0900C1308B00FC
:100F68000E308800103016303E3088002030C8001F
:100F7800C800C9008731C02F0B30880080309E0020
:100F880083309F00003088000030960000308D00CC
:100F9800FF3093003E3088000030C3002030C4008A
:100FA8000E3088008C1ED62F8C12003088008D1EC3
:100FB800F22F8D1AF92F003088001C1DEC2F1C19F8
:100FC800E62FD42F003088001C110E308800D42F53
:100FD800003088001C150E308800D42F0B30880094
:100FE8001F1DDF2F83309F00DF2F0B3088001F1954
:080FF800DF2F87309F00DF2F7F
:020000040001F9
:0A000E00CD3F2537FF3FFF3FFF3FC6
:00000001FF
