:0400000080316C28B7
:100008007E01CA1A08281028CA124B011F1983300A
:100018001F1D87309F0007280900400194019A019D
:100028000800400120302B07840185018400000866
:100038009A00AB0A2B080A3C031CAB0108004001DC
:10004800DE30A0000C30A100D930A2005D30A30042
:100058000F30A4005730A500D730A6001C30A700E9
:10006800DF30A8005F30A9002030AA000030AB00C4
:100078004001900116118D01930193167E01C30171
:10008800C41611207E01C816C916CA128B174E0154
:1000980016164B019E1783309F000C304E018C1EA4
:1000A80053284E018C12400120088501203084001D
:1000B8000008152040011C1D68281C1964285128B7
:1000C80040011C114E01512840011C154E015128B8
:0E00D8008B014E01960197019801803123287B
:020000040001F9
:0A000E00CD3F2537FF3FFF3FFF3FC6
:00000001FF
