:04000000813102291F
:100008007E01CA1A08281028CA124B019F1F853082
:100018009F1B74309F000728090082071A281D2893
:1000280020282328262829282C282F28103099060C
:10003800080010309A06080008309A0608000230B6
:100048009906080020309A0608000430990608002E
:1000580002309C060800013098060800400182071B
:100068003C283F284228452848284B284E28512814
:1000780001309906080001309C06080080309A0675
:10008800080008309906080001309A060800403038
:100098009A06080002309A06080004309A060800FA
:1000A8004001A205A3052208093609360936093692
:1000B800112023083220F030A2000F30A3000800DE
:1000C8009301940196019201980199019A019C016A
:1000D80008000B000134023405340634103411349E
:1000E80012341334143415341634173420342134AC
:1000F800223423342434253426342734303431341C
:100108003234333434343534363437344134423489
:1001180043344434453446345234533454345534D7
:1001280063346434FF3440010030A000A100F03093
:10013800A2000F30A300A401A50140016420900192
:1001480016118D01930193167E01C301C4167E0119
:10015800C816C916CA128B174E0116164B019E17E0
:1001680074309F00EC206D2054204E018C1EBA285C
:100178004E018C12400125086D20542024086D2062
:10018800891BD02854202408A500A40A40011C1D5E
:10019800DC281C19D828B9284001A401A501003081
:1001A8006D205420A40ACA2840011C114E01B92808
:1001B80040011C154E01B9284001A001200811205A
:1001C8004001A00A2008083C031DE228A0010800FD
:1001D8004001A101210832204001A10A2108083C60
:1001E800031DEE28A10108004001FF309A060F30D8
:1001F800990603309C060130980608008B014E01D1
:0A02080096019701980180319728B4
:020000040001F9
:0A000E00CD3F2537FF3FFF3FFF3FC6
:00000001FF
