:0400000081314329DE
:100008007E01062809004001A001A101A201A30167
:10001800A401A601A701A801A901B001B1014001ED
:100028008F019501900196011C149C148C0192017A
:100038009815181698168E0194011A149A148D01A1
:1000480093167E01C301C416B801C301CE01D901BC
:100058004B0180309E0084309F00440100308E00A8
:100068000730910040011A101A148030A90040018D
:100078000730A2000430A8000830A4008920C62058
:1000880000308500313084004E018C1E49284E0115
:100098008C1240019A20B10A482840011C10BE2049
:1000A80040011C14BE20080040019801981229083C
:1000B800891398079B01A91B1B149C10BE20512073
:1000C8009C14BE2008004001203026079800A70194
:1000D800260837219B00BE2040019C10BE205120DD
:1000E8004001283098004001A70A2608372140011E
:1000F8009B00BE2051204001980A07302702031DAB
:100108007728A7019C14BE200800400130309800D1
:10011800BE2040019C10BE20400124089B00BE2048
:10012800512040019B019C14BE2008004001003072
:10013800EF204001A300AC2040012108220203194E
:10014800A828A10AA00A9B284001A001A101080033
:100158004001783020079800BE2040019C10BE2046
:10016800400123089B00BE20512040019B019C14A4
:10017800BE20080044010E140C1EC0280E108D016C
:100188008C0108004001A6016720400126082802CA
:1001980003190800A60AC82840012108B0008935BB
:1001A800300740010B00001C30343134801C3034DF
:1001B8003134001D30343134801D30343134001E68
:1001C80030343134801E30343134001F303431340F
:1001D800801F3034313489350B00D0200800F520D9
:1001E8000800400121080B000034003400340034BA
:1001F8000034003400340034400127080B00003478
:10020800173415341D3401341F3410341F344001A1
:1002180027080B00013400340E341334133413341C
:100228000E340A34400127080B0002340E340E3411
:100238000E34153404340A341134400127080B00F5
:1002480003341F341F341F341F341F341F341F342A
:10025800400127080B000434003404340C340434FF
:1002680006340234003489350B00002108000B21C4
:10027800080016210800212108002C2108008B0104
:0C0288004E019601970198018031072873
:020000040001F9
:0A000E00CD3F2537FF3FFF3FFF3FC6
:00000001FF
